{
  "_format": "hh-sol-artifact-1",
  "contractName": "Marketplace",
  "sourceName": "contracts/MarketPlace.sol",
  "abi": [
    {
      "inputs": [],
      "stateMutability": "nonpayable",
      "type": "constructor"
    },
    {
      "inputs": [
        {
          "internalType": "address",
          "name": "sender",
          "type": "address"
        },
        {
          "internalType": "uint256",
          "name": "tokenId",
          "type": "uint256"
        },
        {
          "internalType": "address",
          "name": "owner",
          "type": "address"
        }
      ],
      "name": "ERC721IncorrectOwner",
      "type": "error"
    },
    {
      "inputs": [
        {
          "internalType": "address",
          "name": "operator",
          "type": "address"
        },
        {
          "internalType": "uint256",
          "name": "tokenId",
          "type": "uint256"
        }
      ],
      "name": "ERC721InsufficientApproval",
      "type": "error"
    },
    {
      "inputs": [
        {
          "internalType": "address",
          "name": "approver",
          "type": "address"
        }
      ],
      "name": "ERC721InvalidApprover",
      "type": "error"
    },
    {
      "inputs": [
        {
          "internalType": "address",
          "name": "operator",
          "type": "address"
        }
      ],
      "name": "ERC721InvalidOperator",
      "type": "error"
    },
    {
      "inputs": [
        {
          "internalType": "address",
          "name": "owner",
          "type": "address"
        }
      ],
      "name": "ERC721InvalidOwner",
      "type": "error"
    },
    {
      "inputs": [
        {
          "internalType": "address",
          "name": "receiver",
          "type": "address"
        }
      ],
      "name": "ERC721InvalidReceiver",
      "type": "error"
    },
    {
      "inputs": [
        {
          "internalType": "address",
          "name": "sender",
          "type": "address"
        }
      ],
      "name": "ERC721InvalidSender",
      "type": "error"
    },
    {
      "inputs": [
        {
          "internalType": "uint256",
          "name": "tokenId",
          "type": "uint256"
        }
      ],
      "name": "ERC721NonexistentToken",
      "type": "error"
    },
    {
      "inputs": [
        {
          "internalType": "address",
          "name": "owner",
          "type": "address"
        }
      ],
      "name": "OwnableInvalidOwner",
      "type": "error"
    },
    {
      "inputs": [
        {
          "internalType": "address",
          "name": "account",
          "type": "address"
        }
      ],
      "name": "OwnableUnauthorizedAccount",
      "type": "error"
    },
    {
      "anonymous": false,
      "inputs": [
        {
          "indexed": true,
          "internalType": "address",
          "name": "owner",
          "type": "address"
        },
        {
          "indexed": true,
          "internalType": "address",
          "name": "approved",
          "type": "address"
        },
        {
          "indexed": true,
          "internalType": "uint256",
          "name": "tokenId",
          "type": "uint256"
        }
      ],
      "name": "Approval",
      "type": "event"
    },
    {
      "anonymous": false,
      "inputs": [
        {
          "indexed": true,
          "internalType": "address",
          "name": "owner",
          "type": "address"
        },
        {
          "indexed": true,
          "internalType": "address",
          "name": "operator",
          "type": "address"
        },
        {
          "indexed": false,
          "internalType": "bool",
          "name": "approved",
          "type": "bool"
        }
      ],
      "name": "ApprovalForAll",
      "type": "event"
    },
    {
      "anonymous": false,
      "inputs": [
        {
          "indexed": false,
          "internalType": "uint256",
          "name": "_fromTokenId",
          "type": "uint256"
        },
        {
          "indexed": false,
          "internalType": "uint256",
          "name": "_toTokenId",
          "type": "uint256"
        }
      ],
      "name": "BatchMetadataUpdate",
      "type": "event"
    },
    {
      "anonymous": false,
      "inputs": [
        {
          "indexed": false,
          "internalType": "uint256",
          "name": "tokenId",
          "type": "uint256"
        },
        {
          "indexed": false,
          "internalType": "address",
          "name": "seller",
          "type": "address"
        },
        {
          "indexed": false,
          "internalType": "uint96",
          "name": "price",
          "type": "uint96"
        }
      ],
      "name": "ItemListed",
      "type": "event"
    },
    {
      "anonymous": false,
      "inputs": [
        {
          "indexed": false,
          "internalType": "uint256",
          "name": "tokenId",
          "type": "uint256"
        },
        {
          "indexed": false,
          "internalType": "address",
          "name": "buyer",
          "type": "address"
        }
      ],
      "name": "ItemSold",
      "type": "event"
    },
    {
      "anonymous": false,
      "inputs": [
        {
          "indexed": false,
          "internalType": "uint256",
          "name": "_tokenId",
          "type": "uint256"
        }
      ],
      "name": "MetadataUpdate",
      "type": "event"
    },
    {
      "anonymous": false,
      "inputs": [
        {
          "indexed": true,
          "internalType": "address",
          "name": "previousOwner",
          "type": "address"
        },
        {
          "indexed": true,
          "internalType": "address",
          "name": "newOwner",
          "type": "address"
        }
      ],
      "name": "OwnershipTransferred",
      "type": "event"
    },
    {
      "anonymous": false,
      "inputs": [
        {
          "indexed": true,
          "internalType": "address",
          "name": "from",
          "type": "address"
        },
        {
          "indexed": true,
          "internalType": "address",
          "name": "to",
          "type": "address"
        },
        {
          "indexed": true,
          "internalType": "uint256",
          "name": "tokenId",
          "type": "uint256"
        }
      ],
      "name": "Transfer",
      "type": "event"
    },
    {
      "inputs": [
        {
          "internalType": "address",
          "name": "to",
          "type": "address"
        },
        {
          "internalType": "uint256",
          "name": "tokenId",
          "type": "uint256"
        }
      ],
      "name": "approve",
      "outputs": [],
      "stateMutability": "nonpayable",
      "type": "function"
    },
    {
      "inputs": [
        {
          "internalType": "address",
          "name": "owner",
          "type": "address"
        }
      ],
      "name": "balanceOf",
      "outputs": [
        {
          "internalType": "uint256",
          "name": "",
          "type": "uint256"
        }
      ],
      "stateMutability": "view",
      "type": "function"
    },
    {
      "inputs": [
        {
          "internalType": "uint256",
          "name": "_tokenId",
          "type": "uint256"
        }
      ],
      "name": "buy",
      "outputs": [],
      "stateMutability": "payable",
      "type": "function"
    },
    {
      "inputs": [
        {
          "internalType": "uint256",
          "name": "tokenId",
          "type": "uint256"
        }
      ],
      "name": "getApproved",
      "outputs": [
        {
          "internalType": "address",
          "name": "",
          "type": "address"
        }
      ],
      "stateMutability": "view",
      "type": "function"
    },
    {
      "inputs": [
        {
          "internalType": "uint256",
          "name": "_tokenId",
          "type": "uint256"
        }
      ],
      "name": "getListing",
      "outputs": [
        {
          "internalType": "address",
          "name": "",
          "type": "address"
        },
        {
          "internalType": "uint96",
          "name": "",
          "type": "uint96"
        },
        {
          "internalType": "bool",
          "name": "",
          "type": "bool"
        }
      ],
      "stateMutability": "view",
      "type": "function"
    },
    {
      "inputs": [
        {
          "internalType": "address",
          "name": "owner",
          "type": "address"
        },
        {
          "internalType": "address",
          "name": "operator",
          "type": "address"
        }
      ],
      "name": "isApprovedForAll",
      "outputs": [
        {
          "internalType": "bool",
          "name": "",
          "type": "bool"
        }
      ],
      "stateMutability": "view",
      "type": "function"
    },
    {
      "inputs": [
        {
          "internalType": "uint256",
          "name": "",
          "type": "uint256"
        }
      ],
      "name": "listings",
      "outputs": [
        {
          "internalType": "address",
          "name": "owner",
          "type": "address"
        },
        {
          "internalType": "uint96",
          "name": "price",
          "type": "uint96"
        },
        {
          "internalType": "bool",
          "name": "isSold",
          "type": "bool"
        }
      ],
      "stateMutability": "view",
      "type": "function"
    },
    {
      "inputs": [
        {
          "internalType": "string",
          "name": "_uri",
          "type": "string"
        },
        {
          "internalType": "uint96",
          "name": "_price",
          "type": "uint96"
        }
      ],
      "name": "mintAndList",
      "outputs": [],
      "stateMutability": "nonpayable",
      "type": "function"
    },
    {
      "inputs": [],
      "name": "name",
      "outputs": [
        {
          "internalType": "string",
          "name": "",
          "type": "string"
        }
      ],
      "stateMutability": "view",
      "type": "function"
    },
    {
      "inputs": [],
      "name": "nextTokenId",
      "outputs": [
        {
          "internalType": "uint256",
          "name": "",
          "type": "uint256"
        }
      ],
      "stateMutability": "view",
      "type": "function"
    },
    {
      "inputs": [],
      "name": "owner",
      "outputs": [
        {
          "internalType": "address",
          "name": "",
          "type": "address"
        }
      ],
      "stateMutability": "view",
      "type": "function"
    },
    {
      "inputs": [
        {
          "internalType": "uint256",
          "name": "tokenId",
          "type": "uint256"
        }
      ],
      "name": "ownerOf",
      "outputs": [
        {
          "internalType": "address",
          "name": "",
          "type": "address"
        }
      ],
      "stateMutability": "view",
      "type": "function"
    },
    {
      "inputs": [
        {
          "internalType": "address",
          "name": "",
          "type": "address"
        }
      ],
      "name": "pendingWithdrawals",
      "outputs": [
        {
          "internalType": "uint256",
          "name": "",
          "type": "uint256"
        }
      ],
      "stateMutability": "view",
      "type": "function"
    },
    {
      "inputs": [],
      "name": "renounceOwnership",
      "outputs": [],
      "stateMutability": "nonpayable",
      "type": "function"
    },
    {
      "inputs": [
        {
          "internalType": "address",
          "name": "from",
          "type": "address"
        },
        {
          "internalType": "address",
          "name": "to",
          "type": "address"
        },
        {
          "internalType": "uint256",
          "name": "tokenId",
          "type": "uint256"
        }
      ],
      "name": "safeTransferFrom",
      "outputs": [],
      "stateMutability": "nonpayable",
      "type": "function"
    },
    {
      "inputs": [
        {
          "internalType": "address",
          "name": "from",
          "type": "address"
        },
        {
          "internalType": "address",
          "name": "to",
          "type": "address"
        },
        {
          "internalType": "uint256",
          "name": "tokenId",
          "type": "uint256"
        },
        {
          "internalType": "bytes",
          "name": "data",
          "type": "bytes"
        }
      ],
      "name": "safeTransferFrom",
      "outputs": [],
      "stateMutability": "nonpayable",
      "type": "function"
    },
    {
      "inputs": [
        {
          "internalType": "address",
          "name": "operator",
          "type": "address"
        },
        {
          "internalType": "bool",
          "name": "approved",
          "type": "bool"
        }
      ],
      "name": "setApprovalForAll",
      "outputs": [],
      "stateMutability": "nonpayable",
      "type": "function"
    },
    {
      "inputs": [
        {
          "internalType": "bytes4",
          "name": "interfaceId",
          "type": "bytes4"
        }
      ],
      "name": "supportsInterface",
      "outputs": [
        {
          "internalType": "bool",
          "name": "",
          "type": "bool"
        }
      ],
      "stateMutability": "view",
      "type": "function"
    },
    {
      "inputs": [],
      "name": "symbol",
      "outputs": [
        {
          "internalType": "string",
          "name": "",
          "type": "string"
        }
      ],
      "stateMutability": "view",
      "type": "function"
    },
    {
      "inputs": [
        {
          "internalType": "uint256",
          "name": "tokenId",
          "type": "uint256"
        }
      ],
      "name": "tokenURI",
      "outputs": [
        {
          "internalType": "string",
          "name": "",
          "type": "string"
        }
      ],
      "stateMutability": "view",
      "type": "function"
    },
    {
      "inputs": [
        {
          "internalType": "address",
          "name": "from",
          "type": "address"
        },
        {
          "internalType": "address",
          "name": "to",
          "type": "address"
        },
        {
          "internalType": "uint256",
          "name": "tokenId",
          "type": "uint256"
        }
      ],
      "name": "transferFrom",
      "outputs": [],
      "stateMutability": "nonpayable",
      "type": "function"
    },
    {
      "inputs": [
        {
          "internalType": "address",
          "name": "newOwner",
          "type": "address"
        }
      ],
      "name": "transferOwnership",
      "outputs": [],
      "stateMutability": "nonpayable",
      "type": "function"
    },
    {
      "inputs": [],
      "name": "withdraw",
      "outputs": [],
      "stateMutability": "nonpayable",
      "type": "function"
    }
  ],
  "bytecode": "0x60806040523480156200001157600080fd5b50336040518060400160405280600981526020017f4e46544d61726b657400000000000000000000000000000000000000000000008152506040518060400160405280600481526020017f4e46544d00000000000000000000000000000000000000000000000000000000815250816000908162000090919062000472565b508060019081620000a2919062000472565b505050600073ffffffffffffffffffffffffffffffffffffffff168173ffffffffffffffffffffffffffffffffffffffff16036200011a5760006040517f1e4fbdf70000000000000000000000000000000000000000000000000000000081526004016200011191906200059e565b60405180910390fd5b6200012b816200013260201b60201c565b50620005bb565b6000600760009054906101000a900473ffffffffffffffffffffffffffffffffffffffff16905081600760006101000a81548173ffffffffffffffffffffffffffffffffffffffff021916908373ffffffffffffffffffffffffffffffffffffffff1602179055508173ffffffffffffffffffffffffffffffffffffffff168173ffffffffffffffffffffffffffffffffffffffff167f8be0079c531659141344cd1fd0a4f28419497f9722a3daafe3b4186f6b6457e060405160405180910390a35050565b600081519050919050565b7f4e487b7100000000000000000000000000000000000000000000000000000000600052604160045260246000fd5b7f4e487b7100000000000000000000000000000000000000000000000000000000600052602260045260246000fd5b600060028204905060018216806200027a57607f821691505b60208210810362000290576200028f62000232565b5b50919050565b60008190508160005260206000209050919050565b60006020601f8301049050919050565b600082821b905092915050565b600060088302620002fa7fffffffffffffffffffffffffffffffffffffffffffffffffffffffffffffffff82620002bb565b620003068683620002bb565b95508019841693508086168417925050509392505050565b6000819050919050565b6000819050919050565b6000620003536200034d62000347846200031e565b62000328565b6200031e565b9050919050565b6000819050919050565b6200036f8362000332565b620003876200037e826200035a565b848454620002c8565b825550505050565b600090565b6200039e6200038f565b620003ab81848462000364565b505050565b5b81811015620003d357620003c760008262000394565b600181019050620003b1565b5050565b601f8211156200042257620003ec8162000296565b620003f784620002ab565b8101602085101562000407578190505b6200041f6200041685620002ab565b830182620003b0565b50505b505050565b600082821c905092915050565b6000620004476000198460080262000427565b1980831691505092915050565b600062000462838362000434565b9150826002028217905092915050565b6200047d82620001f8565b67ffffffffffffffff81111562000499576200049862000203565b5b620004a5825462000261565b620004b2828285620003d7565b600060209050601f831160018114620004ea5760008415620004d5578287015190505b620004e1858262000454565b86555062000551565b601f198416620004fa8662000296565b60005b828110156200052457848901518255600182019150602085019450602081019050620004fd565b8683101562000544578489015162000540601f89168262000434565b8355505b6001600288020188555050505b505050505050565b600073ffffffffffffffffffffffffffffffffffffffff82169050919050565b6000620005868262000559565b9050919050565b620005988162000579565b82525050565b6000602082019050620005b560008301846200058d565b92915050565b6131b380620005cb6000396000f3fe6080604052600436106101405760003560e01c806372623274116100b6578063c87b56dd1161006f578063c87b56dd14610448578063d96a094a14610485578063de74e57b146104a1578063e985e9c5146104e0578063f2fde38b1461051d578063f3f437031461054657610140565b8063726232741461034c57806375794a3c146103755780638da5cb5b146103a057806395d89b41146103cb578063a22cb465146103f6578063b88d4fde1461041f57610140565b806323b872dd1161010857806323b872dd146102525780633ccfd60b1461027b57806342842e0e146102925780636352211e146102bb57806370a08231146102f8578063715018a61461033557610140565b806301ffc9a71461014557806306fdde0314610182578063081812fc146101ad578063095ea7b3146101ea578063107a274a14610213575b600080fd5b34801561015157600080fd5b5061016c600480360381019061016791906123a9565b610583565b60405161017991906123f1565b60405180910390f35b34801561018e57600080fd5b506101976105e4565b6040516101a4919061249c565b60405180910390f35b3480156101b957600080fd5b506101d460048036038101906101cf91906124f4565b610676565b6040516101e19190612562565b60405180910390f35b3480156101f657600080fd5b50610211600480360381019061020c91906125a9565b610692565b005b34801561021f57600080fd5b5061023a600480360381019061023591906124f4565b6106a8565b60405161024993929190612610565b60405180910390f35b34801561025e57600080fd5b5061027960048036038101906102749190612647565b61079a565b005b34801561028757600080fd5b5061029061089c565b005b34801561029e57600080fd5b506102b960048036038101906102b49190612647565b6109b2565b005b3480156102c757600080fd5b506102e260048036038101906102dd91906124f4565b6109d2565b6040516102ef9190612562565b60405180910390f35b34801561030457600080fd5b5061031f600480360381019061031a919061269a565b6109e4565b60405161032c91906126d6565b60405180910390f35b34801561034157600080fd5b5061034a610a9e565b005b34801561035857600080fd5b50610373600480360381019061036e9190612852565b610ab2565b005b34801561038157600080fd5b5061038a610c17565b60405161039791906126d6565b60405180910390f35b3480156103ac57600080fd5b506103b5610c1d565b6040516103c29190612562565b60405180910390f35b3480156103d757600080fd5b506103e0610c47565b6040516103ed919061249c565b60405180910390f35b34801561040257600080fd5b5061041d600480360381019061041891906128da565b610cd9565b005b34801561042b57600080fd5b50610446600480360381019061044191906129bb565b610cef565b005b34801561045457600080fd5b5061046f600480360381019061046a91906124f4565b610d14565b60405161047c919061249c565b60405180910390f35b61049f600480360381019061049a91906124f4565b610e27565b005b3480156104ad57600080fd5b506104c860048036038101906104c391906124f4565b611000565b6040516104d793929190612610565b60405180910390f35b3480156104ec57600080fd5b5061050760048036038101906105029190612a3e565b61106f565b60405161051491906123f1565b60405180910390f35b34801561052957600080fd5b50610544600480360381019061053f919061269a565b611103565b005b34801561055257600080fd5b5061056d6004803603810190610568919061269a565b611189565b60405161057a91906126d6565b60405180910390f35b6000634906490660e01b7bffffffffffffffffffffffffffffffffffffffffffffffffffffffff1916827bffffffffffffffffffffffffffffffffffffffffffffffffffffffff191614806105dd57506105dc826111a1565b5b9050919050565b6060600080546105f390612aad565b80601f016020809104026020016040519081016040528092919081815260200182805461061f90612aad565b801561066c5780601f106106415761010080835404028352916020019161066c565b820191906000526020600020905b81548152906001019060200180831161064f57829003601f168201915b5050505050905090565b600061068182611283565b5061068b8261130b565b9050919050565b6106a4828261069f611348565b611350565b5050565b600080600080600960008681526020019081526020016000206040518060600160405290816000820160009054906101000a900473ffffffffffffffffffffffffffffffffffffffff1673ffffffffffffffffffffffffffffffffffffffff1673ffffffffffffffffffffffffffffffffffffffff1681526020016000820160149054906101000a90046bffffffffffffffffffffffff166bffffffffffffffffffffffff166bffffffffffffffffffffffff1681526020016001820160009054906101000a900460ff1615151515815250509050806000015181602001518260400151935093509350509193909250565b600073ffffffffffffffffffffffffffffffffffffffff168273ffffffffffffffffffffffffffffffffffffffff160361080c5760006040517f64a0ae920000000000000000000000000000000000000000000000000000000081526004016108039190612562565b60405180910390fd5b6000610820838361081b611348565b611362565b90508373ffffffffffffffffffffffffffffffffffffffff168173ffffffffffffffffffffffffffffffffffffffff1614610896578382826040517f64283d7b00000000000000000000000000000000000000000000000000000000815260040161088d93929190612ade565b60405180910390fd5b50505050565b6000600a60003373ffffffffffffffffffffffffffffffffffffffff1673ffffffffffffffffffffffffffffffffffffffff16815260200190815260200160002054905060008111610923576040517f08c379a000000000000000000000000000000000000000000000000000000000815260040161091a90612b61565b60405180910390fd5b6000600a60003373ffffffffffffffffffffffffffffffffffffffff1673ffffffffffffffffffffffffffffffffffffffff168152602001908152602001600020819055503373ffffffffffffffffffffffffffffffffffffffff166108fc829081150290604051600060405180830381858888f193505050501580156109ae573d6000803e3d6000fd5b5050565b6109cd83838360405180602001604052806000815250610cef565b505050565b60006109dd82611283565b9050919050565b60008073ffffffffffffffffffffffffffffffffffffffff168273ffffffffffffffffffffffffffffffffffffffff1603610a575760006040517f89c62b64000000000000000000000000000000000000000000000000000000008152600401610a4e9190612562565b60405180910390fd5b600360008373ffffffffffffffffffffffffffffffffffffffff1673ffffffffffffffffffffffffffffffffffffffff168152602001908152602001600020549050919050565b610aa661157c565b610ab06000611603565b565b600060086000815480929190610ac790612bb0565b919050559050610ad733826116c9565b610ae181846117c2565b60405180606001604052803373ffffffffffffffffffffffffffffffffffffffff168152602001836bffffffffffffffffffffffff168152602001600015158152506009600083815260200190815260200160002060008201518160000160006101000a81548173ffffffffffffffffffffffffffffffffffffffff021916908373ffffffffffffffffffffffffffffffffffffffff16021790555060208201518160000160146101000a8154816bffffffffffffffffffffffff02191690836bffffffffffffffffffffffff16021790555060408201518160010160006101000a81548160ff0219169083151502179055509050507f74853d0857487d8ab8813c4ff8c6740981eaa76fc83634f27c8f6b51d90b79d0813384604051610c0a93929190612bf8565b60405180910390a1505050565b60085481565b6000600760009054906101000a900473ffffffffffffffffffffffffffffffffffffffff16905090565b606060018054610c5690612aad565b80601f0160208091040260200160405190810160405280929190818152602001828054610c8290612aad565b8015610ccf5780601f10610ca457610100808354040283529160200191610ccf565b820191906000526020600020905b815481529060010190602001808311610cb257829003601f168201915b5050505050905090565b610ceb610ce4611348565b838361181e565b5050565b610cfa84848461079a565b610d0e610d05611348565b8585858561198d565b50505050565b6060610d1f82611283565b506000600660008481526020019081526020016000208054610d4090612aad565b80601f0160208091040260200160405190810160405280929190818152602001828054610d6c90612aad565b8015610db95780601f10610d8e57610100808354040283529160200191610db9565b820191906000526020600020905b815481529060010190602001808311610d9c57829003601f168201915b505050505090506000610dca611b3e565b90506000815103610ddf578192505050610e22565b600082511115610e14578082604051602001610dfc929190612c6b565b60405160208183030381529060405292505050610e22565b610e1d84611b55565b925050505b919050565b60006009600083815260200190815260200160002090508060010160009054906101000a900460ff1615610e90576040517f08c379a0000000000000000000000000000000000000000000000000000000008152600401610e8790612cdb565b60405180910390fd5b8060000160149054906101000a90046bffffffffffffffffffffffff166bffffffffffffffffffffffff16341015610efd576040517f08c379a0000000000000000000000000000000000000000000000000000000008152600401610ef490612d47565b60405180910390fd5b610f2c8160000160009054906101000a900473ffffffffffffffffffffffffffffffffffffffff163384611bbe565b60018160010160006101000a81548160ff02191690831515021790555034600a60008360000160009054906101000a900473ffffffffffffffffffffffffffffffffffffffff1673ffffffffffffffffffffffffffffffffffffffff1673ffffffffffffffffffffffffffffffffffffffff1681526020019081526020016000206000828254610fbc9190612d67565b925050819055507f7de4035ced290be6d7724645d43bad448b5d8cc76743ff4da172c2d8e1caa0f58233604051610ff4929190612d9b565b60405180910390a15050565b60096020528060005260406000206000915090508060000160009054906101000a900473ffffffffffffffffffffffffffffffffffffffff16908060000160149054906101000a90046bffffffffffffffffffffffff16908060010160009054906101000a900460ff16905083565b6000600560008473ffffffffffffffffffffffffffffffffffffffff1673ffffffffffffffffffffffffffffffffffffffff16815260200190815260200160002060008373ffffffffffffffffffffffffffffffffffffffff1673ffffffffffffffffffffffffffffffffffffffff16815260200190815260200160002060009054906101000a900460ff16905092915050565b61110b61157c565b600073ffffffffffffffffffffffffffffffffffffffff168173ffffffffffffffffffffffffffffffffffffffff160361117d5760006040517f1e4fbdf70000000000000000000000000000000000000000000000000000000081526004016111749190612562565b60405180910390fd5b61118681611603565b50565b600a6020528060005260406000206000915090505481565b60007f80ac58cd000000000000000000000000000000000000000000000000000000007bffffffffffffffffffffffffffffffffffffffffffffffffffffffff1916827bffffffffffffffffffffffffffffffffffffffffffffffffffffffff1916148061126c57507f5b5e139f000000000000000000000000000000000000000000000000000000007bffffffffffffffffffffffffffffffffffffffffffffffffffffffff1916827bffffffffffffffffffffffffffffffffffffffffffffffffffffffff1916145b8061127c575061127b82611d2b565b5b9050919050565b60008061128f83611d95565b9050600073ffffffffffffffffffffffffffffffffffffffff168173ffffffffffffffffffffffffffffffffffffffff160361130257826040517f7e2732890000000000000000000000000000000000000000000000000000000081526004016112f991906126d6565b60405180910390fd5b80915050919050565b60006004600083815260200190815260200160002060009054906101000a900473ffffffffffffffffffffffffffffffffffffffff169050919050565b600033905090565b61135d8383836001611dd2565b505050565b60008061136e84611d95565b9050600073ffffffffffffffffffffffffffffffffffffffff168373ffffffffffffffffffffffffffffffffffffffff16146113b0576113af818486611f97565b5b600073ffffffffffffffffffffffffffffffffffffffff168173ffffffffffffffffffffffffffffffffffffffff1614611441576113f2600085600080611dd2565b6001600360008373ffffffffffffffffffffffffffffffffffffffff1673ffffffffffffffffffffffffffffffffffffffff168152602001908152602001600020600082825403925050819055505b600073ffffffffffffffffffffffffffffffffffffffff168573ffffffffffffffffffffffffffffffffffffffff16146114c4576001600360008773ffffffffffffffffffffffffffffffffffffffff1673ffffffffffffffffffffffffffffffffffffffff168152602001908152602001600020600082825401925050819055505b846002600086815260200190815260200160002060006101000a81548173ffffffffffffffffffffffffffffffffffffffff021916908373ffffffffffffffffffffffffffffffffffffffff160217905550838573ffffffffffffffffffffffffffffffffffffffff168273ffffffffffffffffffffffffffffffffffffffff167fddf252ad1be2c89b69c2b068fc378daa952ba7f163c4a11628f55a4df523b3ef60405160405180910390a4809150509392505050565b611584611348565b73ffffffffffffffffffffffffffffffffffffffff166115a2610c1d565b73ffffffffffffffffffffffffffffffffffffffff1614611601576115c5611348565b6040517f118cdaa70000000000000000000000000000000000000000000000000000000081526004016115f89190612562565b60405180910390fd5b565b6000600760009054906101000a900473ffffffffffffffffffffffffffffffffffffffff16905081600760006101000a81548173ffffffffffffffffffffffffffffffffffffffff021916908373ffffffffffffffffffffffffffffffffffffffff1602179055508173ffffffffffffffffffffffffffffffffffffffff168173ffffffffffffffffffffffffffffffffffffffff167f8be0079c531659141344cd1fd0a4f28419497f9722a3daafe3b4186f6b6457e060405160405180910390a35050565b600073ffffffffffffffffffffffffffffffffffffffff168273ffffffffffffffffffffffffffffffffffffffff160361173b5760006040517f64a0ae920000000000000000000000000000000000000000000000000000000081526004016117329190612562565b60405180910390fd5b600061174983836000611362565b9050600073ffffffffffffffffffffffffffffffffffffffff168173ffffffffffffffffffffffffffffffffffffffff16146117bd5760006040517f73c6ac6e0000000000000000000000000000000000000000000000000000000081526004016117b49190612562565b60405180910390fd5b505050565b806006600084815260200190815260200160002090816117e29190612f70565b507ff8e1a15aba9398e019f0b49df1a4fde98ee17ae345cb5f6b5e2c27f5033e8ce78260405161181291906126d6565b60405180910390a15050565b600073ffffffffffffffffffffffffffffffffffffffff168273ffffffffffffffffffffffffffffffffffffffff160361188f57816040517f5b08ba180000000000000000000000000000000000000000000000000000000081526004016118869190612562565b60405180910390fd5b80600560008573ffffffffffffffffffffffffffffffffffffffff1673ffffffffffffffffffffffffffffffffffffffff16815260200190815260200160002060008473ffffffffffffffffffffffffffffffffffffffff1673ffffffffffffffffffffffffffffffffffffffff16815260200190815260200160002060006101000a81548160ff0219169083151502179055508173ffffffffffffffffffffffffffffffffffffffff168373ffffffffffffffffffffffffffffffffffffffff167f17307eab39ab6107e8899845ad3d59bd9653f200f220920489ca2b5937696c318360405161198091906123f1565b60405180910390a3505050565b60008373ffffffffffffffffffffffffffffffffffffffff163b1115611b37578273ffffffffffffffffffffffffffffffffffffffff1663150b7a02868685856040518563ffffffff1660e01b81526004016119ec9493929190613097565b6020604051808303816000875af1925050508015611a2857506040513d601f19601f82011682018060405250810190611a2591906130f8565b60015b611aac573d8060008114611a58576040519150601f19603f3d011682016040523d82523d6000602084013e611a5d565b606091505b506000815103611aa457836040517f64a0ae92000000000000000000000000000000000000000000000000000000008152600401611a9b9190612562565b60405180910390fd5b805181602001fd5b63150b7a0260e01b7bffffffffffffffffffffffffffffffffffffffffffffffffffffffff1916817bffffffffffffffffffffffffffffffffffffffffffffffffffffffff191614611b3557836040517f64a0ae92000000000000000000000000000000000000000000000000000000008152600401611b2c9190612562565b60405180910390fd5b505b5050505050565b606060405180602001604052806000815250905090565b6060611b6082611283565b506000611b6b611b3e565b90506000815111611b8b5760405180602001604052806000815250611bb6565b80611b958461205b565b604051602001611ba6929190612c6b565b6040516020818303038152906040525b915050919050565b600073ffffffffffffffffffffffffffffffffffffffff168273ffffffffffffffffffffffffffffffffffffffff1603611c305760006040517f64a0ae92000000000000000000000000000000000000000000000000000000008152600401611c279190612562565b60405180910390fd5b6000611c3e83836000611362565b9050600073ffffffffffffffffffffffffffffffffffffffff168173ffffffffffffffffffffffffffffffffffffffff1603611cb157816040517f7e273289000000000000000000000000000000000000000000000000000000008152600401611ca891906126d6565b60405180910390fd5b8373ffffffffffffffffffffffffffffffffffffffff168173ffffffffffffffffffffffffffffffffffffffff1614611d25578382826040517f64283d7b000000000000000000000000000000000000000000000000000000008152600401611d1c93929190612ade565b60405180910390fd5b50505050565b60007f01ffc9a7000000000000000000000000000000000000000000000000000000007bffffffffffffffffffffffffffffffffffffffffffffffffffffffff1916827bffffffffffffffffffffffffffffffffffffffffffffffffffffffff1916149050919050565b60006002600083815260200190815260200160002060009054906101000a900473ffffffffffffffffffffffffffffffffffffffff169050919050565b8080611e0b5750600073ffffffffffffffffffffffffffffffffffffffff168273ffffffffffffffffffffffffffffffffffffffff1614155b15611f3f576000611e1b84611283565b9050600073ffffffffffffffffffffffffffffffffffffffff168373ffffffffffffffffffffffffffffffffffffffff1614158015611e8657508273ffffffffffffffffffffffffffffffffffffffff168173ffffffffffffffffffffffffffffffffffffffff1614155b8015611e995750611e97818461106f565b155b15611edb57826040517fa9fbf51f000000000000000000000000000000000000000000000000000000008152600401611ed29190612562565b60405180910390fd5b8115611f3d57838573ffffffffffffffffffffffffffffffffffffffff168273ffffffffffffffffffffffffffffffffffffffff167f8c5be1e5ebec7d5bd14f71427d1e84f3dd0314c0f7b2291e5b200ac8c7c3b92560405160405180910390a45b505b836004600085815260200190815260200160002060006101000a81548173ffffffffffffffffffffffffffffffffffffffff021916908373ffffffffffffffffffffffffffffffffffffffff16021790555050505050565b611fa2838383612129565b61205657600073ffffffffffffffffffffffffffffffffffffffff168373ffffffffffffffffffffffffffffffffffffffff160361201757806040517f7e27328900000000000000000000000000000000000000000000000000000000815260040161200e91906126d6565b60405180910390fd5b81816040517f177e802f00000000000000000000000000000000000000000000000000000000815260040161204d929190613125565b60405180910390fd5b505050565b60606000600161206a846121ea565b01905060008167ffffffffffffffff811115612089576120886126fb565b5b6040519080825280601f01601f1916602001820160405280156120bb5781602001600182028036833780820191505090505b509050600082602001820190505b60011561211e578080600190039150507f3031323334353637383961626364656600000000000000000000000000000000600a86061a8153600a85816121125761211161314e565b5b049450600085036120c9575b819350505050919050565b60008073ffffffffffffffffffffffffffffffffffffffff168373ffffffffffffffffffffffffffffffffffffffff16141580156121e157508273ffffffffffffffffffffffffffffffffffffffff168473ffffffffffffffffffffffffffffffffffffffff1614806121a257506121a1848461106f565b5b806121e057508273ffffffffffffffffffffffffffffffffffffffff166121c88361130b565b73ffffffffffffffffffffffffffffffffffffffff16145b5b90509392505050565b600080600090507a184f03e93ff9f4daa797ed6e38ed64bf6a1f0100000000000000008310612248577a184f03e93ff9f4daa797ed6e38ed64bf6a1f010000000000000000838161223e5761223d61314e565b5b0492506040810190505b6d04ee2d6d415b85acef81000000008310612285576d04ee2d6d415b85acef8100000000838161227b5761227a61314e565b5b0492506020810190505b662386f26fc1000083106122b457662386f26fc1000083816122aa576122a961314e565b5b0492506010810190505b6305f5e10083106122dd576305f5e10083816122d3576122d261314e565b5b0492506008810190505b61271083106123025761271083816122f8576122f761314e565b5b0492506004810190505b60648310612325576064838161231b5761231a61314e565b5b0492506002810190505b600a8310612334576001810190505b80915050919050565b6000604051905090565b600080fd5b600080fd5b60007fffffffff0000000000000000000000000000000000000000000000000000000082169050919050565b61238681612351565b811461239157600080fd5b50565b6000813590506123a38161237d565b92915050565b6000602082840312156123bf576123be612347565b5b60006123cd84828501612394565b91505092915050565b60008115159050919050565b6123eb816123d6565b82525050565b600060208201905061240660008301846123e2565b92915050565b600081519050919050565b600082825260208201905092915050565b60005b8381101561244657808201518184015260208101905061242b565b60008484015250505050565b6000601f19601f8301169050919050565b600061246e8261240c565b6124788185612417565b9350612488818560208601612428565b61249181612452565b840191505092915050565b600060208201905081810360008301526124b68184612463565b905092915050565b6000819050919050565b6124d1816124be565b81146124dc57600080fd5b50565b6000813590506124ee816124c8565b92915050565b60006020828403121561250a57612509612347565b5b6000612518848285016124df565b91505092915050565b600073ffffffffffffffffffffffffffffffffffffffff82169050919050565b600061254c82612521565b9050919050565b61255c81612541565b82525050565b60006020820190506125776000830184612553565b92915050565b61258681612541565b811461259157600080fd5b50565b6000813590506125a38161257d565b92915050565b600080604083850312156125c0576125bf612347565b5b60006125ce85828601612594565b92505060206125df858286016124df565b9150509250929050565b60006bffffffffffffffffffffffff82169050919050565b61260a816125e9565b82525050565b60006060820190506126256000830186612553565b6126326020830185612601565b61263f60408301846123e2565b949350505050565b6000806000606084860312156126605761265f612347565b5b600061266e86828701612594565b935050602061267f86828701612594565b9250506040612690868287016124df565b9150509250925092565b6000602082840312156126b0576126af612347565b5b60006126be84828501612594565b91505092915050565b6126d0816124be565b82525050565b60006020820190506126eb60008301846126c7565b92915050565b600080fd5b600080fd5b7f4e487b7100000000000000000000000000000000000000000000000000000000600052604160045260246000fd5b61273382612452565b810181811067ffffffffffffffff82111715612752576127516126fb565b5b80604052505050565b600061276561233d565b9050612771828261272a565b919050565b600067ffffffffffffffff821115612791576127906126fb565b5b61279a82612452565b9050602081019050919050565b82818337600083830152505050565b60006127c96127c484612776565b61275b565b9050828152602081018484840111156127e5576127e46126f6565b5b6127f08482856127a7565b509392505050565b600082601f83011261280d5761280c6126f1565b5b813561281d8482602086016127b6565b91505092915050565b61282f816125e9565b811461283a57600080fd5b50565b60008135905061284c81612826565b92915050565b6000806040838503121561286957612868612347565b5b600083013567ffffffffffffffff8111156128875761288661234c565b5b612893858286016127f8565b92505060206128a48582860161283d565b9150509250929050565b6128b7816123d6565b81146128c257600080fd5b50565b6000813590506128d4816128ae565b92915050565b600080604083850312156128f1576128f0612347565b5b60006128ff85828601612594565b9250506020612910858286016128c5565b9150509250929050565b600067ffffffffffffffff821115612935576129346126fb565b5b61293e82612452565b9050602081019050919050565b600061295e6129598461291a565b61275b565b90508281526020810184848401111561297a576129796126f6565b5b6129858482856127a7565b509392505050565b600082601f8301126129a2576129a16126f1565b5b81356129b284826020860161294b565b91505092915050565b600080600080608085870312156129d5576129d4612347565b5b60006129e387828801612594565b94505060206129f487828801612594565b9350506040612a05878288016124df565b925050606085013567ffffffffffffffff811115612a2657612a2561234c565b5b612a328782880161298d565b91505092959194509250565b60008060408385031215612a5557612a54612347565b5b6000612a6385828601612594565b9250506020612a7485828601612594565b9150509250929050565b7f4e487b7100000000000000000000000000000000000000000000000000000000600052602260045260246000fd5b60006002820490506001821680612ac557607f821691505b602082108103612ad857612ad7612a7e565b5b50919050565b6000606082019050612af36000830186612553565b612b0060208301856126c7565b612b0d6040830184612553565b949350505050565b7f4e6f7468696e6720746f20776974686472617700000000000000000000000000600082015250565b6000612b4b601383612417565b9150612b5682612b15565b602082019050919050565b60006020820190508181036000830152612b7a81612b3e565b9050919050565b7f4e487b7100000000000000000000000000000000000000000000000000000000600052601160045260246000fd5b6000612bbb826124be565b91507fffffffffffffffffffffffffffffffffffffffffffffffffffffffffffffffff8203612bed57612bec612b81565b5b600182019050919050565b6000606082019050612c0d60008301866126c7565b612c1a6020830185612553565b612c276040830184612601565b949350505050565b600081905092915050565b6000612c458261240c565b612c4f8185612c2f565b9350612c5f818560208601612428565b80840191505092915050565b6000612c778285612c3a565b9150612c838284612c3a565b91508190509392505050565b7f416c726561647920736f6c640000000000000000000000000000000000000000600082015250565b6000612cc5600c83612417565b9150612cd082612c8f565b602082019050919050565b60006020820190508181036000830152612cf481612cb8565b9050919050565b7f496e73756666696369656e740000000000000000000000000000000000000000600082015250565b6000612d31600c83612417565b9150612d3c82612cfb565b602082019050919050565b60006020820190508181036000830152612d6081612d24565b9050919050565b6000612d72826124be565b9150612d7d836124be565b9250828201905080821115612d9557612d94612b81565b5b92915050565b6000604082019050612db060008301856126c7565b612dbd6020830184612553565b9392505050565b60008190508160005260206000209050919050565b60006020601f8301049050919050565b600082821b905092915050565b600060088302612e267fffffffffffffffffffffffffffffffffffffffffffffffffffffffffffffffff82612de9565b612e308683612de9565b95508019841693508086168417925050509392505050565b6000819050919050565b6000612e6d612e68612e63846124be565b612e48565b6124be565b9050919050565b6000819050919050565b612e8783612e52565b612e9b612e9382612e74565b848454612df6565b825550505050565b600090565b612eb0612ea3565b612ebb818484612e7e565b505050565b5b81811015612edf57612ed4600082612ea8565b600181019050612ec1565b5050565b601f821115612f2457612ef581612dc4565b612efe84612dd9565b81016020851015612f0d578190505b612f21612f1985612dd9565b830182612ec0565b50505b505050565b600082821c905092915050565b6000612f4760001984600802612f29565b1980831691505092915050565b6000612f608383612f36565b9150826002028217905092915050565b612f798261240c565b67ffffffffffffffff811115612f9257612f916126fb565b5b612f9c8254612aad565b612fa7828285612ee3565b600060209050601f831160018114612fda5760008415612fc8578287015190505b612fd28582612f54565b86555061303a565b601f198416612fe886612dc4565b60005b8281101561301057848901518255600182019150602085019450602081019050612feb565b8683101561302d5784890151613029601f891682612f36565b8355505b6001600288020188555050505b505050505050565b600081519050919050565b600082825260208201905092915050565b600061306982613042565b613073818561304d565b9350613083818560208601612428565b61308c81612452565b840191505092915050565b60006080820190506130ac6000830187612553565b6130b96020830186612553565b6130c660408301856126c7565b81810360608301526130d8818461305e565b905095945050505050565b6000815190506130f28161237d565b92915050565b60006020828403121561310e5761310d612347565b5b600061311c848285016130e3565b91505092915050565b600060408201905061313a6000830185612553565b61314760208301846126c7565b9392505050565b7f4e487b7100000000000000000000000000000000000000000000000000000000600052601260045260246000fdfea2646970667358221220ee47126ecb7dad6c37d9dab6af67ca584ead4f796b42c67c43f08497b52c08a064736f6c63430008140033",
  "linkReferences": {},
  "deployedLinkReferences": {}
}